:100000000C942B000C9448000C9448000C9448006D
:100010000C9448000C9448000C9448000C94480040
:100020000C9448000C9448000C9448000C94480030
:100030000C9448000C9448000C9448000C94480020
:100040000C9448000C9448000C9448000C94480010
:100050000C944800C7AF11241FBECFE5D8E0DEBF27
:10006000CDBF10E0A0E6B0E0E0EEF1E002C0059008
:100070000D92A436B107D9F720E0A4E6B0E001C0A4
:100080001D92A636B207E1F70E94DA000C94EE004A
:100090000C9400008EB582608EBD8FB581608FBDDF
:1000A0008EB588608EBD8FB5806A8FBD81B3806349
:1000B00081BB86E690E09BBD8ABD19BC18BC089543
:1000C00020916200309164009091600080B380952F
:1000D0008F708093650080916500813021F4832FBB
:1000E000822321F517C080916500823019F4832F97
:1000F000822399F080916500843021F49923C9F01E
:1001000091500DC080916500883049F49F3F39F0CF
:100110009F5F05C030E02FEF02C03FEF20E020934B
:1001200062003093640090936000089580916500B0
:10013000E1CF80916500883091F7EACF809161002E
:100140008F3F29F48091600090E09BBD8ABD809133
:100150006100811105C08091600090E099BD88BD6B
:1001600008958FEF8BBB809162008F3F79F4E4E5B7
:10017000F0E0E4918AB59BB58C9820E221BB9927E9
:1001800099BD88BD8FEF8093610001C0EFEF809132
:10019000620081110DC0E5E5F0E0E49188B599B504
:1001A0008D9820E121BB99279BBD8ABD10926100EB
:1001B000EBBB08950E944A008FEF8ABB82B38F6029
:1001C00082BB0E9460000E94B1000E949E0083ECEE
:1001D00099E00197F1F700C00000F3CFF894FFCF4A
:0401E00066FFFF00B7
:00000001FF
